{"abi":[{"type":"constructor","inputs":[{"name":"bldTokenAddress","type":"address","internalType":"address"},{"name":"derTokenAddress","type":"address","internalType":"address"},{"name":"initialAdmin","type":"address","internalType":"address"}],"stateMutability":"nonpayable"},{"type":"function","name":"ADMIN_ROLE","inputs":[],"outputs":[{"name":"","type":"bytes32","internalType":"bytes32"}],"stateMutability":"view"},{"type":"function","name":"DEFAULT_ADMIN_ROLE","inputs":[],"outputs":[{"name":"","type":"bytes32","internalType":"bytes32"}],"stateMutability":"view"},{"type":"function","name":"SUPER_ADMIN_ROLE","inputs":[],"outputs":[{"name":"","type":"bytes32","internalType":"bytes32"}],"stateMutability":"view"},{"type":"function","name":"activeRequestId","inputs":[{"name":"applicant","type":"address","internalType":"address"}],"outputs":[{"name":"requestId","type":"uint256","internalType":"uint256"}],"stateMutability":"view"},{"type":"function","name":"addAdmin","inputs":[{"name":"_admin","type":"address","internalType":"address"}],"outputs":[],"stateMutability":"nonpayable"},{"type":"function","name":"approveRequest","inputs":[{"name":"_requestId","type":"uint256","internalType":"uint256"}],"outputs":[],"stateMutability":"nonpayable"},{"type":"function","name":"buyItem","inputs":[{"name":"nftAddress","type":"address","internalType":"address"},{"name":"tokenId","type":"uint256","internalType":"uint256"}],"outputs":[],"stateMutability":"payable"},{"type":"function","name":"cancelListing","inputs":[{"name":"nftAddress","type":"address","internalType":"address"},{"name":"tokenId","type":"uint256","internalType":"uint256"}],"outputs":[],"stateMutability":"nonpayable"},{"type":"function","name":"companies","inputs":[{"name":"companyWallet","type":"address","internalType":"address"}],"outputs":[{"name":"name","type":"string","internalType":"string"},{"name":"location","type":"string","internalType":"string"},{"name":"role","type":"uint8","internalType":"enum BloodTracker.Role"},{"name":"status","type":"uint8","internalType":"enum BloodTracker.RequestStatus"},{"name":"requestId","type":"uint256","internalType":"uint256"}],"stateMutability":"view"},{"type":"function","name":"donate","inputs":[{"name":"_from","type":"address","internalType":"address"}],"outputs":[{"name":"","type":"uint256","internalType":"uint256"}],"stateMutability":"payable"},{"type":"function","name":"donors","inputs":[{"name":"donorWallet","type":"address","internalType":"address"}],"outputs":[{"name":"bloodType","type":"uint8","internalType":"enum IBlood.BloodType"},{"name":"balance","type":"uint256","internalType":"uint256"}],"stateMutability":"view"},{"type":"function","name":"getActiveRequestId","inputs":[{"name":"_applicant","type":"address","internalType":"address"}],"outputs":[{"name":"","type":"uint256","internalType":"uint256"}],"stateMutability":"view"},{"type":"function","name":"getCompanyStatus","inputs":[{"name":"_company","type":"address","internalType":"address"}],"outputs":[{"name":"","type":"uint8","internalType":"enum BloodTracker.RequestStatus"}],"stateMutability":"view"},{"type":"function","name":"getListing","inputs":[{"name":"nftAddress","type":"address","internalType":"address"},{"name":"tokenId","type":"uint256","internalType":"uint256"}],"outputs":[{"name":"","type":"uint256","internalType":"uint256"},{"name":"","type":"address","internalType":"address"}],"stateMutability":"view"},{"type":"function","name":"getMinimumDonationFee","inputs":[],"outputs":[{"name":"","type":"uint256","internalType":"uint256"}],"stateMutability":"pure"},{"type":"function","name":"getPendingRequests","inputs":[],"outputs":[{"name":"","type":"uint256[]","internalType":"uint256[]"}],"stateMutability":"view"},{"type":"function","name":"getRequestDetails","inputs":[{"name":"_requestId","type":"uint256","internalType":"uint256"}],"outputs":[{"name":"","type":"tuple","internalType":"struct BloodTracker.RegistrationRequest","components":[{"name":"applicant","type":"address","internalType":"address"},{"name":"name","type":"string","internalType":"string"},{"name":"location","type":"string","internalType":"string"},{"name":"requestedRole","type":"uint8","internalType":"enum BloodTracker.Role"},{"name":"status","type":"uint8","internalType":"enum BloodTracker.RequestStatus"},{"name":"createdAt","type":"uint256","internalType":"uint256"},{"name":"processedAt","type":"uint256","internalType":"uint256"},{"name":"processedBy","type":"address","internalType":"address"},{"name":"rejectionReason","type":"string","internalType":"string"}]}],"stateMutability":"view"},{"type":"function","name":"getRoleAdmin","inputs":[{"name":"role","type":"bytes32","internalType":"bytes32"}],"outputs":[{"name":"","type":"bytes32","internalType":"bytes32"}],"stateMutability":"view"},{"type":"function","name":"getTokensOnSale","inputs":[{"name":"tokenAddress","type":"address","internalType":"address"}],"outputs":[{"name":"","type":"uint256[]","internalType":"uint256[]"}],"stateMutability":"view"},{"type":"function","name":"getTotalRequests","inputs":[],"outputs":[{"name":"","type":"uint256","internalType":"uint256"}],"stateMutability":"view"},{"type":"function","name":"grantRole","inputs":[{"name":"role","type":"bytes32","internalType":"bytes32"},{"name":"account","type":"address","internalType":"address"}],"outputs":[],"stateMutability":"nonpayable"},{"type":"function","name":"hasRole","inputs":[{"name":"role","type":"bytes32","internalType":"bytes32"},{"name":"account","type":"address","internalType":"address"}],"outputs":[{"name":"","type":"bool","internalType":"bool"}],"stateMutability":"view"},{"type":"function","name":"isAdmin","inputs":[{"name":"_account","type":"address","internalType":"address"}],"outputs":[{"name":"","type":"bool","internalType":"bool"}],"stateMutability":"view"},{"type":"function","name":"listItem","inputs":[{"name":"nftAddress","type":"address","internalType":"address"},{"name":"tokenId","type":"uint256","internalType":"uint256"},{"name":"price","type":"uint256","internalType":"uint256"}],"outputs":[],"stateMutability":"nonpayable"},{"type":"function","name":"modifyRole","inputs":[{"name":"_company","type":"address","internalType":"address"},{"name":"_newRole","type":"uint8","internalType":"enum BloodTracker.Role"}],"outputs":[],"stateMutability":"nonpayable"},{"type":"function","name":"process","inputs":[{"name":"_tokenId","type":"uint256","internalType":"uint256"}],"outputs":[{"name":"","type":"uint256","internalType":"uint256"},{"name":"","type":"uint256","internalType":"uint256"},{"name":"","type":"uint256","internalType":"uint256"}],"stateMutability":"nonpayable"},{"type":"function","name":"rejectRequest","inputs":[{"name":"_requestId","type":"uint256","internalType":"uint256"},{"name":"_reason","type":"string","internalType":"string"}],"outputs":[],"stateMutability":"nonpayable"},{"type":"function","name":"removeAdmin","inputs":[{"name":"_admin","type":"address","internalType":"address"}],"outputs":[],"stateMutability":"nonpayable"},{"type":"function","name":"renounceRole","inputs":[{"name":"role","type":"bytes32","internalType":"bytes32"},{"name":"callerConfirmation","type":"address","internalType":"address"}],"outputs":[],"stateMutability":"nonpayable"},{"type":"function","name":"requestCounter","inputs":[],"outputs":[{"name":"","type":"uint256","internalType":"uint256"}],"stateMutability":"view"},{"type":"function","name":"requestSignUp","inputs":[{"name":"_name","type":"string","internalType":"string"},{"name":"_location","type":"string","internalType":"string"},{"name":"_role","type":"uint8","internalType":"enum BloodTracker.Role"}],"outputs":[],"stateMutability":"nonpayable"},{"type":"function","name":"requests","inputs":[{"name":"requestId","type":"uint256","internalType":"uint256"}],"outputs":[{"name":"applicant","type":"address","internalType":"address"},{"name":"name","type":"string","internalType":"string"},{"name":"location","type":"string","internalType":"string"},{"name":"requestedRole","type":"uint8","internalType":"enum BloodTracker.Role"},{"name":"status","type":"uint8","internalType":"enum BloodTracker.RequestStatus"},{"name":"createdAt","type":"uint256","internalType":"uint256"},{"name":"processedAt","type":"uint256","internalType":"uint256"},{"name":"processedBy","type":"address","internalType":"address"},{"name":"rejectionReason","type":"string","internalType":"string"}],"stateMutability":"view"},{"type":"function","name":"revokeCompany","inputs":[{"name":"_company","type":"address","internalType":"address"}],"outputs":[],"stateMutability":"nonpayable"},{"type":"function","name":"revokeRole","inputs":[{"name":"role","type":"bytes32","internalType":"bytes32"},{"name":"account","type":"address","internalType":"address"}],"outputs":[],"stateMutability":"nonpayable"},{"type":"function","name":"supportsInterface","inputs":[{"name":"interfaceId","type":"bytes4","internalType":"bytes4"}],"outputs":[{"name":"","type":"bool","internalType":"bool"}],"stateMutability":"view"},{"type":"function","name":"updateListing","inputs":[{"name":"nftAddress","type":"address","internalType":"address"},{"name":"tokenId","type":"uint256","internalType":"uint256"},{"name":"newPrice","type":"uint256","internalType":"uint256"}],"outputs":[],"stateMutability":"nonpayable"},{"type":"event","name":"CompanyRevoked","inputs":[{"name":"company","type":"address","indexed":true,"internalType":"address"},{"name":"revokedBy","type":"address","indexed":true,"internalType":"address"},{"name":"previousRole","type":"uint8","indexed":false,"internalType":"enum BloodTracker.Role"},{"name":"timestamp","type":"uint256","indexed":false,"internalType":"uint256"}],"anonymous":false},{"type":"event","name":"Donation","inputs":[{"name":"donor","type":"address","indexed":true,"internalType":"address"},{"name":"center","type":"address","indexed":true,"internalType":"address"},{"name":"tokenId","type":"uint256","indexed":true,"internalType":"uint256"},{"name":"value","type":"uint256","indexed":false,"internalType":"uint256"}],"anonymous":false},{"type":"event","name":"ItemBought","inputs":[{"name":"buyer","type":"address","indexed":true,"internalType":"address"},{"name":"nftAddress","type":"address","indexed":true,"internalType":"address"},{"name":"tokenId","type":"uint256","indexed":true,"internalType":"uint256"},{"name":"price","type":"uint256","indexed":false,"internalType":"uint256"}],"anonymous":false},{"type":"event","name":"ItemCanceled","inputs":[{"name":"seller","type":"address","indexed":true,"internalType":"address"},{"name":"nftAddress","type":"address","indexed":true,"internalType":"address"},{"name":"tokenId","type":"uint256","indexed":true,"internalType":"uint256"}],"anonymous":false},{"type":"event","name":"ItemListed","inputs":[{"name":"seller","type":"address","indexed":true,"internalType":"address"},{"name":"nftAddress","type":"address","indexed":true,"internalType":"address"},{"name":"tokenId","type":"uint256","indexed":true,"internalType":"uint256"},{"name":"price","type":"uint256","indexed":false,"internalType":"uint256"}],"anonymous":false},{"type":"event","name":"RequestApproved","inputs":[{"name":"requestId","type":"uint256","indexed":true,"internalType":"uint256"},{"name":"applicant","type":"address","indexed":true,"internalType":"address"},{"name":"approvedBy","type":"address","indexed":true,"internalType":"address"},{"name":"role","type":"uint8","indexed":false,"internalType":"enum BloodTracker.Role"},{"name":"timestamp","type":"uint256","indexed":false,"internalType":"uint256"}],"anonymous":false},{"type":"event","name":"RequestCreated","inputs":[{"name":"requestId","type":"uint256","indexed":true,"internalType":"uint256"},{"name":"applicant","type":"address","indexed":true,"internalType":"address"},{"name":"requestedRole","type":"uint8","indexed":false,"internalType":"enum BloodTracker.Role"},{"name":"name","type":"string","indexed":false,"internalType":"string"},{"name":"timestamp","type":"uint256","indexed":false,"internalType":"uint256"}],"anonymous":false},{"type":"event","name":"RequestRejected","inputs":[{"name":"requestId","type":"uint256","indexed":true,"internalType":"uint256"},{"name":"applicant","type":"address","indexed":true,"internalType":"address"},{"name":"rejectedBy","type":"address","indexed":true,"internalType":"address"},{"name":"reason","type":"string","indexed":false,"internalType":"string"},{"name":"timestamp","type":"uint256","indexed":false,"internalType":"uint256"}],"anonymous":false},{"type":"event","name":"RoleAdminChanged","inputs":[{"name":"role","type":"bytes32","indexed":true,"internalType":"bytes32"},{"name":"previousAdminRole","type":"bytes32","indexed":true,"internalType":"bytes32"},{"name":"newAdminRole","type":"bytes32","indexed":true,"internalType":"bytes32"}],"anonymous":false},{"type":"event","name":"RoleGranted","inputs":[{"name":"role","type":"bytes32","indexed":true,"internalType":"bytes32"},{"name":"account","type":"address","indexed":true,"internalType":"address"},{"name":"sender","type":"address","indexed":true,"internalType":"address"}],"anonymous":false},{"type":"event","name":"RoleModified","inputs":[{"name":"company","type":"address","indexed":true,"internalType":"address"},{"name":"modifiedBy","type":"address","indexed":true,"internalType":"address"},{"name":"oldRole","type":"uint8","indexed":false,"internalType":"enum BloodTracker.Role"},{"name":"newRole","type":"uint8","indexed":false,"internalType":"enum BloodTracker.Role"},{"name":"timestamp","type":"uint256","indexed":false,"internalType":"uint256"}],"anonymous":false},{"type":"event","name":"RoleRevoked","inputs":[{"name":"role","type":"bytes32","indexed":true,"internalType":"bytes32"},{"name":"account","type":"address","indexed":true,"internalType":"address"},{"name":"sender","type":"address","indexed":true,"internalType":"address"}],"anonymous":false},{"type":"error","name":"AccessControlBadConfirmation","inputs":[]},{"type":"error","name":"AccessControlUnauthorizedAccount","inputs":[{"name":"account","type":"address","internalType":"address"},{"name":"neededRole","type":"bytes32","internalType":"bytes32"}]},{"type":"error","name":"AlreadyListed","inputs":[{"name":"nftAddress","type":"address","internalType":"address"},{"name":"tokenId","type":"uint256","internalType":"uint256"}]},{"type":"error","name":"BloodTracker__AddressAlreadyRegistered","inputs":[]},{"type":"error","name":"BloodTracker__CompanyNotApproved","inputs":[]},{"type":"error","name":"BloodTracker__IncorrectRole","inputs":[{"name":"required","type":"uint8","internalType":"enum BloodTracker.Role"},{"name":"yourRole","type":"uint8","internalType":"enum BloodTracker.Role"}]},{"type":"error","name":"BloodTracker__InvalidRole","inputs":[]},{"type":"error","name":"BloodTracker__MinimumDonationFeeNotMet","inputs":[]},{"type":"error","name":"BloodTracker__NotAdmin","inputs":[]},{"type":"error","name":"BloodTracker__NotOwner","inputs":[]},{"type":"error","name":"BloodTracker__PendingRequestExists","inputs":[]},{"type":"error","name":"BloodTracker__RequestNotFound","inputs":[]},{"type":"error","name":"BloodTracker__RequestNotPending","inputs":[]},{"type":"error","name":"BloodTracker__RoleNotAdmitted","inputs":[]},{"type":"error","name":"NotApprovedForMarketplace","inputs":[]},{"type":"error","name":"NotListed","inputs":[{"name":"nftAddress","type":"address","internalType":"address"},{"name":"tokenId","type":"uint256","internalType":"uint256"}]},{"type":"error","name":"NotOwner","inputs":[]},{"type":"error","name":"PriceMustBeAboveZero","inputs":[]},{"type":"error","name":"PriceNotMet","inputs":[{"name":"nftAddress","type":"address","internalType":"address"},{"name":"tokenId","type":"uint256","internalType":"uint256"},{"name":"price","type":"uint256","internalType":"uint256"}]},{"type":"error","name":"ReentrancyGuardReentrantCall","inputs":[]}],"bytecode":{"object":"0x608060405234801562000010575f80fd5b5060405162005ddd38038062005ddd8339818101604052810190620000369190620003dd565b60015f819055508260035f6101000a81548173ffffffffffffffffffffffffffffffffffffffff021916908373ffffffffffffffffffffffffffffffffffffffff1602179055508160045f6101000a81548173ffffffffffffffffffffffffffffffffffffffff021916908373ffffffffffffffffffffffffffffffffffffffff160217905550620000d15f801b826200019360201b60201c565b50620001047f7613a25ecc738585a232ad50a301178f12b3ba8887d13e138b523c4269c47689826200019360201b60201c565b50620001377fa49807205ce4d355092ef5a8a18f56e8913cf4a201fbe287825b095693c21775826200019360201b60201c565b506200018a7fa49807205ce4d355092ef5a8a18f56e8913cf4a201fbe287825b095693c217757f7613a25ecc738585a232ad50a301178f12b3ba8887d13e138b523c4269c476896200028f60201b60201c565b50505062000436565b5f620001a68383620002f060201b60201c565b6200028557600160025f8581526020019081526020015f205f015f8473ffffffffffffffffffffffffffffffffffffffff1673ffffffffffffffffffffffffffffffffffffffff1681526020019081526020015f205f6101000a81548160ff021916908315150217905550620002216200035460201b60201c565b73ffffffffffffffffffffffffffffffffffffffff168273ffffffffffffffffffffffffffffffffffffffff16847f2f8788117e7eff1d82e926ec794901d17c78024a50270940304540a733656f0d60405160405180910390a46001905062000289565b5f90505b92915050565b5f620002a1836200035b60201b60201c565b90508160025f8581526020019081526020015f20600101819055508181847fbd79b86ffe0ab8e8776151514217cd7cacd52c909f66475c3af44e129f0b00ff60405160405180910390a4505050565b5f60025f8481526020019081526020015f205f015f8373ffffffffffffffffffffffffffffffffffffffff1673ffffffffffffffffffffffffffffffffffffffff1681526020019081526020015f205f9054906101000a900460ff16905092915050565b5f33905090565b5f60025f8381526020019081526020015f20600101549050919050565b5f80fd5b5f73ffffffffffffffffffffffffffffffffffffffff82169050919050565b5f620003a7826200037c565b9050919050565b620003b9816200039b565b8114620003c4575f80fd5b50565b5f81519050620003d781620003ae565b92915050565b5f805f60608486031215620003f757620003f662000378565b5b5f6200040686828701620003c7565b93505060206200041986828701620003c7565b92505060406200042c86828701620003c7565b9150509250925092565b61599980620004445f395ff3fe60806040526004361061020d575f3560e01c8063868daea911610117578063b2ddee061161009f578063e9c1847e1161006e578063e9c1847e146107ef578063f0e22d5214610817578063f34d4c6314610841578063f772adf11461087d578063ffb2c479146108a55761020d565b8063b2ddee061461073a578063ca0cdea814610762578063d547741f1461079f578063d7d1bbdb146107c75761020d565b8063921f401a116100e6578063921f401a14610664578063973a814e1461068e5780639bbba3a8146106b85780639f37092a146106f4578063a217fddf146107105761020d565b8063868daea91461058757806388700d1c146105c357806389bfd38f1461060057806391d14854146106285761020d565b806336568abe1161019a5780637048027511610169578063704802751461049f57806375b238fc146104c75780637e3b89da146104f157806380a1f7121461051957806381d12c58146105435761020d565b806336568abe146103e95780634460bdd6146104115780635a4cbcec1461043b5780636e715915146104775761020d565b80632296f80e116101e15780632296f80e146102cd578063248a9ca31461030957806324d7806c146103455780632f2ff15d14610381578063355e6ce8146103a95761020d565b8062362a951461021157806301ffc9a7146102415780630a5505dd1461027d5780631785f53c146102a5575b5f80fd5b61022b6004803603810190610226919061472f565b6108e3565b6040516102389190614772565b60405180910390f35b34801561024c575f80fd5b50610267600480360381019061026291906147e0565b610d32565b6040516102749190614825565b60405180910390f35b348015610288575f80fd5b506102a3600480360381019061029e91906149a4565b610dab565b005b3480156102b0575f80fd5b506102cb60048036038101906102c6919061472f565b6110a6565b005b3480156102d8575f80fd5b506102f360048036038101906102ee919061472f565b611133565b6040516103009190614a71565b60405180910390f35b348015610314575f80fd5b5061032f600480360381019061032a9190614abd565b611189565b60405161033c9190614af7565b60405180910390f35b348015610350575f80fd5b5061036b6004803603810190610366919061472f565b6111a6565b6040516103789190614825565b60405180910390f35b34801561038c575f80fd5b506103a760048036038101906103a29190614b10565b611209565b005b3480156103b4575f80fd5b506103cf60048036038101906103ca919061472f565b61122b565b6040516103e0959493929190614c0e565b60405180910390f35b3480156103f4575f80fd5b5061040f600480360381019061040a9190614b10565b611382565b005b34801561041c575f80fd5b506104256113fd565b6040516104329190614af7565b60405180910390f35b348015610446575f80fd5b50610461600480360381019061045c919061472f565b611421565b60405161046e9190614772565b60405180910390f35b348015610482575f80fd5b5061049d60048036038101906104989190614c90565b611436565b005b3480156104aa575f80fd5b506104c560048036038101906104c0919061472f565b6118dd565b005b3480156104d2575f80fd5b506104db61196a565b6040516104e89190614af7565b60405180910390f35b3480156104fc575f80fd5b506105176004803603810190610512919061472f565b61198e565b005b348015610524575f80fd5b5061052d611bcc565b60405161053a9190614dcf565b60405180910390f35b34801561054e575f80fd5b5061056960048036038101906105649190614def565b611c22565b60405161057e99989796959493929190614e29565b60405180910390f35b348015610592575f80fd5b506105ad60048036038101906105a8919061472f565b611e55565b6040516105ba9190614772565b60405180910390f35b3480156105ce575f80fd5b506105e960048036038101906105e49190614ec9565b611e9b565b6040516105f7929190614f07565b60405180910390f35b34801561060b575f80fd5b5061062660048036038101906106219190614f2e565b611f66565b005b348015610633575f80fd5b5061064e60048036038101906106499190614b10565b6120b0565b60405161065b9190614825565b60405180910390f35b34801561066f575f80fd5b50610678612114565b6040516106859190614772565b60405180910390f35b348015610699575f80fd5b506106a2612122565b6040516106af9190614772565b60405180910390f35b3480156106c3575f80fd5b506106de60048036038101906106d9919061472f565b612128565b6040516106eb9190614dcf565b60405180910390f35b61070e60048036038101906107099190614ec9565b6122b7565b005b34801561071b575f80fd5b50610724612449565b6040516107319190614af7565b60405180910390f35b348015610745575f80fd5b50610760600480360381019061075b9190614ec9565b61244f565b005b34801561076d575f80fd5b506107886004803603810190610783919061472f565b6127d9565b604051610796929190614fc4565b60405180910390f35b3480156107aa575f80fd5b506107c560048036038101906107c09190614b10565b612805565b005b3480156107d2575f80fd5b506107ed60048036038101906107e89190614def565b612827565b005b3480156107fa575f80fd5b5061081560048036038101906108109190614feb565b612d4a565b005b348015610822575f80fd5b5061082b612f99565b6040516108389190614772565b60405180910390f35b34801561084c575f80fd5b5061086760048036038101906108629190614def565b612fa2565b604051610874919061516e565b60405180910390f35b348015610888575f80fd5b506108a3600480360381019061089e9190614f2e565b6132b0565b005b3480156108b0575f80fd5b506108cb60048036038101906108c69190614def565b613590565b6040516108da9392919061518e565b60405180910390f35b5f60018060038111156108f9576108f86149fe565b5b60065f3373ffffffffffffffffffffffffffffffffffffffff1673ffffffffffffffffffffffffffffffffffffffff1681526020019081526020015f206002015f9054906101000a900460ff166003811115610958576109576149fe565b5b1415806109d7575060026004811115610974576109736149fe565b5b60065f3373ffffffffffffffffffffffffffffffffffffffff1673ffffffffffffffffffffffffffffffffffffffff1681526020019081526020015f2060020160019054906101000a900460ff1660048111156109d4576109d36149fe565b5b14155b15610a67578060065f3373ffffffffffffffffffffffffffffffffffffffff1673ffffffffffffffffffffffffffffffffffffffff1681526020019081526020015f206002015f9054906101000a900460ff166040517f7851b250000000000000000000000000000000000000000000000000000000008152600401610a5e9291906151c3565b60405180910390fd5b825f6003811115610a7b57610a7a6149fe565b5b60065f8373ffffffffffffffffffffffffffffffffffffffff1673ffffffffffffffffffffffffffffffffffffffff1681526020019081526020015f206002015f9054906101000a900460ff166003811115610ada57610ad96149fe565b5b141580610b5657505f6008811115610af557610af46149fe565b5b60055f8373ffffffffffffffffffffffffffffffffffffffff1673ffffffffffffffffffffffffffffffffffffffff1681526020019081526020015f205f015f9054906101000a900460ff166008811115610b5357610b526149fe565b5b14155b15610b8d576040517f82b3c00800000000000000000000000000000000000000000000000000000000815260040160405180910390fd5b66038d7ea4c68000341015610bce576040517f3448bd8900000000000000000000000000000000000000000000000000000000815260040160405180910390fd5b3460055f8673ffffffffffffffffffffffffffffffffffffffff1673ffffffffffffffffffffffffffffffffffffffff1681526020019081526020015f206001015f828254610c1d9190615217565b925050819055505f60035f9054906101000a900473ffffffffffffffffffffffffffffffffffffffff1673ffffffffffffffffffffffffffffffffffffffff16636a627842336040518263ffffffff1660e01b8152600401610c7f919061524a565b6020604051808303815f875af1158015610c9b573d5f803e3d5ffd5b505050506040513d601f19601f82011682018060405250810190610cbf9190615277565b9050803373ffffffffffffffffffffffffffffffffffffffff168673ffffffffffffffffffffffffffffffffffffffff167f9a3ad7d1530a1c9e215f59a73425f48c5798be3c0e70009388bf37dc616e2ac834604051610d1f9190614772565b60405180910390a4809350505050919050565b5f7f7965db0b000000000000000000000000000000000000000000000000000000007bffffffffffffffffffffffffffffffffffffffffffffffffffffffff1916827bffffffffffffffffffffffffffffffffffffffffffffffffffffffff19161480610da45750610da382613a9c565b5b9050919050565b610dd57fa49807205ce4d355092ef5a8a18f56e8913cf4a201fbe287825b095693c21775336120b0565b158015610e095750610e077f7613a25ecc738585a232ad50a301178f12b3ba8887d13e138b523c4269c47689336120b0565b155b15610e40576040517f420477c100000000000000000000000000000000000000000000000000000000815260040160405180910390fd5b5f60075f8481526020019081526020015f2090505f73ffffffffffffffffffffffffffffffffffffffff16815f015f9054906101000a900473ffffffffffffffffffffffffffffffffffffffff1673ffffffffffffffffffffffffffffffffffffffff1603610edb576040517f753e551400000000000000000000000000000000000000000000000000000000815260040160405180910390fd5b60016004811115610eef57610eee6149fe565b5b8160030160019054906101000a900460ff166004811115610f1357610f126149fe565b5b14610f4a576040517fcabe53b900000000000000000000000000000000000000000000000000000000815260040160405180910390fd5b5f825103610f84576040517f74ad264500000000000000000000000000000000000000000000000000000000815260040160405180910390fd5b60038160030160016101000a81548160ff02191690836004811115610fac57610fab6149fe565b5b021790555042816005018190555033816006015f6101000a81548173ffffffffffffffffffffffffffffffffffffffff021916908373ffffffffffffffffffffffffffffffffffffffff1602179055508181600701908161100d919061549c565b5061101783613b05565b3373ffffffffffffffffffffffffffffffffffffffff16815f015f9054906101000a900473ffffffffffffffffffffffffffffffffffffffff1673ffffffffffffffffffffffffffffffffffffffff16847fc25a5339850bc3d19ee349f520d9f228678ad0415830386635bdf4345fe0d3fe854260405161109992919061556b565b60405180910390a4505050565b6110d07f7613a25ecc738585a232ad50a301178f12b3ba8887d13e138b523c4269c47689336120b0565b611106576040517f420477c100000000000000000000000000000000000000000000000000000000815260040160405180910390fd5b6111307fa49807205ce4d355092ef5a8a18f56e8913cf4a201fbe287825b095693c2177582612805565b50565b5f60065f8373ffffffffffffffffffffffffffffffffffffffff1673ffffffffffffffffffffffffffffffffffffffff1681526020019081526020015f2060020160019054906101000a900460ff169050919050565b5f60025f8381526020019081526020015f20600101549050919050565b5f6111d17fa49807205ce4d355092ef5a8a18f56e8913cf4a201fbe287825b095693c21775836120b0565b8061120257506112017f7613a25ecc738585a232ad50a301178f12b3ba8887d13e138b523c4269c47689836120b0565b5b9050919050565b61121282611189565b61121b81613bc6565b6112258383613bda565b50505050565b6006602052805f5260405f205f91509050805f01805461124a906152cf565b80601f0160208091040260200160405190810160405280929190818152602001828054611276906152cf565b80156112c15780601f10611298576101008083540402835291602001916112c1565b820191905f5260205f20905b8154815290600101906020018083116112a457829003601f168201915b5050505050908060010180546112d6906152cf565b80601f0160208091040260200160405190810160405280929190818152602001828054611302906152cf565b801561134d5780601f106113245761010080835404028352916020019161134d565b820191905f5260205f20905b81548152906001019060200180831161133057829003601f168201915b505050505090806002015f9054906101000a900460ff16908060020160019054906101000a900460ff16908060030154905085565b61138a613cc4565b73ffffffffffffffffffffffffffffffffffffffff168173ffffffffffffffffffffffffffffffffffffffff16146113ee576040517f6697b23200000000000000000000000000000000000000000000000000000000815260040160405180910390fd5b6113f88282613ccb565b505050565b7f7613a25ecc738585a232ad50a301178f12b3ba8887d13e138b523c4269c4768981565b6008602052805f5260405f205f915090505481565b5f6003811115611449576114486149fe565b5b81600381111561145c5761145b6149fe565b5b03611493576040517f74ad264500000000000000000000000000000000000000000000000000000000815260040160405180910390fd5b5f60085f3373ffffffffffffffffffffffffffffffffffffffff1673ffffffffffffffffffffffffffffffffffffffff1681526020019081526020015f205490505f81141580156115295750600160048111156114f3576114f26149fe565b5b60075f8381526020019081526020015f2060030160019054906101000a900460ff166004811115611527576115266149fe565b5b145b15611560576040517f14887ff600000000000000000000000000000000000000000000000000000000815260040160405180910390fd5b60026004811115611574576115736149fe565b5b60065f3373ffffffffffffffffffffffffffffffffffffffff1673ffffffffffffffffffffffffffffffffffffffff1681526020019081526020015f2060020160019054906101000a900460ff1660048111156115d4576115d36149fe565b5b0361160b576040517f82b3c00800000000000000000000000000000000000000000000000000000000815260040160405180910390fd5b60095f81548092919061161d90615599565b91905055505f60095490506040518061012001604052803373ffffffffffffffffffffffffffffffffffffffff16815260200186815260200185815260200184600381111561166f5761166e6149fe565b5b815260200160016004811115611688576116876149fe565b5b81526020014281526020015f81526020015f73ffffffffffffffffffffffffffffffffffffffff16815260200160405180602001604052805f81525081525060075f8381526020019081526020015f205f820151815f015f6101000a81548173ffffffffffffffffffffffffffffffffffffffff021916908373ffffffffffffffffffffffffffffffffffffffff1602179055506020820151816001019081611731919061549c565b506040820151816002019081611747919061549c565b506060820151816003015f6101000a81548160ff02191690836003811115611772576117716149fe565b5b021790555060808201518160030160016101000a81548160ff021916908360048111156117a2576117a16149fe565b5b021790555060a0820151816004015560c0820151816005015560e0820151816006015f6101000a81548173ffffffffffffffffffffffffffffffffffffffff021916908373ffffffffffffffffffffffffffffffffffffffff160217905550610100820151816007019081611817919061549c565b509050508060085f3373ffffffffffffffffffffffffffffffffffffffff1673ffffffffffffffffffffffffffffffffffffffff1681526020019081526020015f2081905550600a81908060018154018082558091505060019003905f5260205f20015f90919091909150553373ffffffffffffffffffffffffffffffffffffffff16817fc6a4ed81ef31e5bbf2fe46637d582f3551808301ab9ef0f954526e50d418b45e8588426040516118ce939291906155e0565b60405180910390a35050505050565b6119077f7613a25ecc738585a232ad50a301178f12b3ba8887d13e138b523c4269c47689336120b0565b61193d576040517f420477c100000000000000000000000000000000000000000000000000000000815260040160405180910390fd5b6119677fa49807205ce4d355092ef5a8a18f56e8913cf4a201fbe287825b095693c2177582611209565b50565b7fa49807205ce4d355092ef5a8a18f56e8913cf4a201fbe287825b095693c2177581565b6119b87fa49807205ce4d355092ef5a8a18f56e8913cf4a201fbe287825b095693c21775336120b0565b1580156119ec57506119ea7f7613a25ecc738585a232ad50a301178f12b3ba8887d13e138b523c4269c47689336120b0565b155b15611a23576040517f420477c100000000000000000000000000000000000000000000000000000000815260040160405180910390fd5b5f60065f8373ffffffffffffffffffffffffffffffffffffffff1673ffffffffffffffffffffffffffffffffffffffff1681526020019081526020015f20905060026004811115611a7757611a766149fe565b5b8160020160019054906101000a900460ff166004811115611a9b57611a9a6149fe565b5b14611ad2576040517f9b82acfd00000000000000000000000000000000000000000000000000000000815260040160405180910390fd5b5f816002015f9054906101000a900460ff16905060048260020160016101000a81548160ff02191690836004811115611b0e57611b0d6149fe565b5b02179055505f826003015414611b6057600460075f846003015481526020019081526020015f2060030160016101000a81548160ff02191690836004811115611b5a57611b596149fe565b5b02179055505b3373ffffffffffffffffffffffffffffffffffffffff168373ffffffffffffffffffffffffffffffffffffffff167f72ddd09be9f6f65e0ee314b094766b28eddc054f656124a71bb3e042f690b3c28342604051611bbf92919061561c565b60405180910390a3505050565b6060600a805480602002602001604051908101604052809291908181526020018280548015611c1857602002820191905f5260205f20905b815481526020019060010190808311611c04575b5050505050905090565b6007602052805f5260405f205f91509050805f015f9054906101000a900473ffffffffffffffffffffffffffffffffffffffff1690806001018054611c66906152cf565b80601f0160208091040260200160405190810160405280929190818152602001828054611c92906152cf565b8015611cdd5780601f10611cb457610100808354040283529160200191611cdd565b820191905f5260205f20905b815481529060010190602001808311611cc057829003601f168201915b505050505090806002018054611cf2906152cf565b80601f0160208091040260200160405190810160405280929190818152602001828054611d1e906152cf565b8015611d695780601f10611d4057610100808354040283529160200191611d69565b820191905f5260205f20905b815481529060010190602001808311611d4c57829003601f168201915b505050505090806003015f9054906101000a900460ff16908060030160019054906101000a900460ff1690806004015490806005015490806006015f9054906101000a900473ffffffffffffffffffffffffffffffffffffffff1690806007018054611dd4906152cf565b80601f0160208091040260200160405190810160405280929190818152602001828054611e00906152cf565b8015611e4b5780601f10611e2257610100808354040283529160200191611e4b565b820191905f5260205f20905b815481529060010190602001808311611e2e57829003601f168201915b5050505050905089565b5f60085f8373ffffffffffffffffffffffffffffffffffffffff1673ffffffffffffffffffffffffffffffffffffffff1681526020019081526020015f20549050919050565b5f8060015f8573ffffffffffffffffffffffffffffffffffffffff1673ffffffffffffffffffffffffffffffffffffffff1681526020019081526020015f205f8481526020019081526020015f205f015460015f8673ffffffffffffffffffffffffffffffffffffffff1673ffffffffffffffffffffffffffffffffffffffff1681526020019081526020015f205f8581526020019081526020015f206001015f9054906101000a900473ffffffffffffffffffffffffffffffffffffffff16915091509250929050565b5f60065f3373ffffffffffffffffffffffffffffffffffffffff1673ffffffffffffffffffffffffffffffffffffffff1681526020019081526020015f206002015f9054906101000a900460ff16905060026003811115611fca57611fc96149fe565b5b816003811115611fdd57611fdc6149fe565b5b1415801561200f5750600380811115611ff957611ff86149fe565b5b81600381111561200c5761200b6149fe565b5b14155b1561209f578060065f3373ffffffffffffffffffffffffffffffffffffffff1673ffffffffffffffffffffffffffffffffffffffff1681526020019081526020015f206002015f9054906101000a900460ff166040517f7851b2500000000000000000000000000000000000000000000000000000000081526004016120969291906151c3565b60405180910390fd5b6120aa848484613db5565b50505050565b5f60025f8481526020019081526020015f205f015f8373ffffffffffffffffffffffffffffffffffffffff1673ffffffffffffffffffffffffffffffffffffffff1681526020019081526020015f205f9054906101000a900460ff16905092915050565b5f66038d7ea4c68000905090565b60095481565b60605f8290505f8173ffffffffffffffffffffffffffffffffffffffff166370a08231306040518263ffffffff1660e01b8152600401612168919061524a565b602060405180830381865afa158015612183573d5f803e3d5ffd5b505050506040513d601f19601f820116820180604052508101906121a79190615277565b90505f8167ffffffffffffffff8111156121c4576121c3614880565b5b6040519080825280602002602001820160405280156121f25781602001602082028036833780820191505090505b5090505f5b828110156122ab578373ffffffffffffffffffffffffffffffffffffffff16632f745c5930836040518363ffffffff1660e01b815260040161223a929190615643565b602060405180830381865afa158015612255573d5f803e3d5ffd5b505050506040513d601f19601f820116820180604052508101906122799190615277565b82828151811061228c5761228b61566a565b5b60200260200101818152505080806122a390615599565b9150506121f7565b50809350505050919050565b60038060038111156122cc576122cb6149fe565b5b60065f3373ffffffffffffffffffffffffffffffffffffffff1673ffffffffffffffffffffffffffffffffffffffff1681526020019081526020015f206002015f9054906101000a900460ff16600381111561232b5761232a6149fe565b5b1415806123aa575060026004811115612347576123466149fe565b5b60065f3373ffffffffffffffffffffffffffffffffffffffff1673ffffffffffffffffffffffffffffffffffffffff1681526020019081526020015f2060020160019054906101000a900460ff1660048111156123a7576123a66149fe565b5b14155b1561243a578060065f3373ffffffffffffffffffffffffffffffffffffffff1673ffffffffffffffffffffffffffffffffffffffff1681526020019081526020015f206002015f9054906101000a900460ff166040517f7851b2500000000000000000000000000000000000000000000000000000000081526004016124319291906151c3565b60405180910390fd5b6124448383614173565b505050565b5f801b81565b81815f60015f8473ffffffffffffffffffffffffffffffffffffffff1673ffffffffffffffffffffffffffffffffffffffff1681526020019081526020015f205f8381526020019081526020015f206040518060400160405290815f8201548152602001600182015f9054906101000a900473ffffffffffffffffffffffffffffffffffffffff1673ffffffffffffffffffffffffffffffffffffffff1673ffffffffffffffffffffffffffffffffffffffff168152505090505f815f0151116125525782826040517f6831488c000000000000000000000000000000000000000000000000000000008152600401612549929190615643565b60405180910390fd5b3373ffffffffffffffffffffffffffffffffffffffff1660015f8773ffffffffffffffffffffffffffffffffffffffff1673ffffffffffffffffffffffffffffffffffffffff1681526020019081526020015f205f8681526020019081526020015f206001015f9054906101000a900473ffffffffffffffffffffffffffffffffffffffff1673ffffffffffffffffffffffffffffffffffffffff1614612625576040517f30cd747100000000000000000000000000000000000000000000000000000000815260040160405180910390fd5b5f8590508073ffffffffffffffffffffffffffffffffffffffff1663095ea7b330876040518363ffffffff1660e01b8152600401612664929190615643565b5f604051808303815f87803b15801561267b575f80fd5b505af115801561268d573d5f803e3d5ffd5b5050505060015f8773ffffffffffffffffffffffffffffffffffffffff1673ffffffffffffffffffffffffffffffffffffffff1681526020019081526020015f205f8681526020019081526020015f205f8082015f9055600182015f6101000a81549073ffffffffffffffffffffffffffffffffffffffff021916905550508073ffffffffffffffffffffffffffffffffffffffff166323b872dd3033886040518463ffffffff1660e01b815260040161274993929190615697565b5f604051808303815f87803b158015612760575f80fd5b505af1158015612772573d5f803e3d5ffd5b50505050848673ffffffffffffffffffffffffffffffffffffffff163373ffffffffffffffffffffffffffffffffffffffff167f9ba1a3cb55ce8d63d072a886f94d2a744f50cddf82128e897d0661f5ec62315860405160405180910390a4505050505050565b6005602052805f5260405f205f91509050805f015f9054906101000a900460ff16908060010154905082565b61280e82611189565b61281781613bc6565b6128218383613ccb565b50505050565b6128517fa49807205ce4d355092ef5a8a18f56e8913cf4a201fbe287825b095693c21775336120b0565b15801561288557506128837f7613a25ecc738585a232ad50a301178f12b3ba8887d13e138b523c4269c47689336120b0565b155b156128bc576040517f420477c100000000000000000000000000000000000000000000000000000000815260040160405180910390fd5b5f60075f8381526020019081526020015f2090505f73ffffffffffffffffffffffffffffffffffffffff16815f015f9054906101000a900473ffffffffffffffffffffffffffffffffffffffff1673ffffffffffffffffffffffffffffffffffffffff1603612957576040517f753e551400000000000000000000000000000000000000000000000000000000815260040160405180910390fd5b6001600481111561296b5761296a6149fe565b5b8160030160019054906101000a900460ff16600481111561298f5761298e6149fe565b5b146129c6576040517fcabe53b900000000000000000000000000000000000000000000000000000000815260040160405180910390fd5b60028160030160016101000a81548160ff021916908360048111156129ee576129ed6149fe565b5b021790555042816005018190555033816006015f6101000a81548173ffffffffffffffffffffffffffffffffffffffff021916908373ffffffffffffffffffffffffffffffffffffffff1602179055506040518060a00160405280826001018054612a58906152cf565b80601f0160208091040260200160405190810160405280929190818152602001828054612a84906152cf565b8015612acf5780601f10612aa657610100808354040283529160200191612acf565b820191905f5260205f20905b815481529060010190602001808311612ab257829003601f168201915b50505050508152602001826002018054612ae8906152cf565b80601f0160208091040260200160405190810160405280929190818152602001828054612b14906152cf565b8015612b5f5780601f10612b3657610100808354040283529160200191612b5f565b820191905f5260205f20905b815481529060010190602001808311612b4257829003601f168201915b50505050508152602001826003015f9054906101000a900460ff166003811115612b8c57612b8b6149fe565b5b815260200160026004811115612ba557612ba46149fe565b5b81526020018381525060065f835f015f9054906101000a900473ffffffffffffffffffffffffffffffffffffffff1673ffffffffffffffffffffffffffffffffffffffff1673ffffffffffffffffffffffffffffffffffffffff1681526020019081526020015f205f820151815f019081612c20919061549c565b506020820151816001019081612c36919061549c565b506040820151816002015f6101000a81548160ff02191690836003811115612c6157612c606149fe565b5b021790555060608201518160020160016101000a81548160ff02191690836004811115612c9157612c906149fe565b5b021790555060808201518160030155905050612cac82613b05565b3373ffffffffffffffffffffffffffffffffffffffff16815f015f9054906101000a900473ffffffffffffffffffffffffffffffffffffffff1673ffffffffffffffffffffffffffffffffffffffff16837f8e32ac65f59c89df23b3b302c05b7d6d1f2a96ae47cd1b38796d49d1457c8f77846003015f9054906101000a900460ff1642604051612d3e92919061561c565b60405180910390a45050565b612d747fa49807205ce4d355092ef5a8a18f56e8913cf4a201fbe287825b095693c21775336120b0565b158015612da85750612da67f7613a25ecc738585a232ad50a301178f12b3ba8887d13e138b523c4269c47689336120b0565b155b15612ddf576040517f420477c100000000000000000000000000000000000000000000000000000000815260040160405180910390fd5b5f60065f8473ffffffffffffffffffffffffffffffffffffffff1673ffffffffffffffffffffffffffffffffffffffff1681526020019081526020015f20905060026004811115612e3357612e326149fe565b5b8160020160019054906101000a900460ff166004811115612e5757612e566149fe565b5b14612e8e576040517f9b82acfd00000000000000000000000000000000000000000000000000000000815260040160405180910390fd5b5f6003811115612ea157612ea06149fe565b5b826003811115612eb457612eb36149fe565b5b03612eeb576040517f74ad264500000000000000000000000000000000000000000000000000000000815260040160405180910390fd5b5f816002015f9054906101000a900460ff16905082826002015f6101000a81548160ff02191690836003811115612f2557612f246149fe565b5b02179055503373ffffffffffffffffffffffffffffffffffffffff168473ffffffffffffffffffffffffffffffffffffffff167f6a2a9f019faf3ab79e2b896a6f2a006dc4f2ec2957d7838725a64c99324664cb838642604051612f8b939291906156cc565b60405180910390a350505050565b5f600954905090565b612faa61462e565b60075f8381526020019081526020015f20604051806101200160405290815f82015f9054906101000a900473ffffffffffffffffffffffffffffffffffffffff1673ffffffffffffffffffffffffffffffffffffffff1673ffffffffffffffffffffffffffffffffffffffff16815260200160018201805461302b906152cf565b80601f0160208091040260200160405190810160405280929190818152602001828054613057906152cf565b80156130a25780601f10613079576101008083540402835291602001916130a2565b820191905f5260205f20905b81548152906001019060200180831161308557829003601f168201915b505050505081526020016002820180546130bb906152cf565b80601f01602080910402602001604051908101604052809291908181526020018280546130e7906152cf565b80156131325780601f1061310957610100808354040283529160200191613132565b820191905f5260205f20905b81548152906001019060200180831161311557829003601f168201915b50505050508152602001600382015f9054906101000a900460ff16600381111561315f5761315e6149fe565b5b6003811115613171576131706149fe565b5b81526020016003820160019054906101000a900460ff16600481111561319a576131996149fe565b5b60048111156131ac576131ab6149fe565b5b81526020016004820154815260200160058201548152602001600682015f9054906101000a900473ffffffffffffffffffffffffffffffffffffffff1673ffffffffffffffffffffffffffffffffffffffff1673ffffffffffffffffffffffffffffffffffffffff168152602001600782018054613229906152cf565b80601f0160208091040260200160405190810160405280929190818152602001828054613255906152cf565b80156132a05780601f10613277576101008083540402835291602001916132a0565b820191905f5260205f20905b81548152906001019060200180831161328357829003601f168201915b5050505050815250509050919050565b82825f60015f8473ffffffffffffffffffffffffffffffffffffffff1673ffffffffffffffffffffffffffffffffffffffff1681526020019081526020015f205f8381526020019081526020015f206040518060400160405290815f8201548152602001600182015f9054906101000a900473ffffffffffffffffffffffffffffffffffffffff1673ffffffffffffffffffffffffffffffffffffffff1673ffffffffffffffffffffffffffffffffffffffff168152505090505f815f0151116133b35782826040517f6831488c0000000000000000000000000000000000000000000000000000000081526004016133aa929190615643565b60405180910390fd5b6133bb614590565b3373ffffffffffffffffffffffffffffffffffffffff1660015f8873ffffffffffffffffffffffffffffffffffffffff1673ffffffffffffffffffffffffffffffffffffffff1681526020019081526020015f205f8781526020019081526020015f206001015f9054906101000a900473ffffffffffffffffffffffffffffffffffffffff1673ffffffffffffffffffffffffffffffffffffffff161461348e576040517f30cd747100000000000000000000000000000000000000000000000000000000815260040160405180910390fd5b5f84116134c7576040517fe1abbfc500000000000000000000000000000000000000000000000000000000815260040160405180910390fd5b8360015f8873ffffffffffffffffffffffffffffffffffffffff1673ffffffffffffffffffffffffffffffffffffffff1681526020019081526020015f205f8781526020019081526020015f205f0181905550848673ffffffffffffffffffffffffffffffffffffffff163373ffffffffffffffffffffffffffffffffffffffff167fd547e933094f12a9159076970143ebe73234e64480317844b0dcb36117116de4876040516135789190614772565b60405180910390a46135886145d4565b505050505050565b5f805f833373ffffffffffffffffffffffffffffffffffffffff1660035f9054906101000a900473ffffffffffffffffffffffffffffffffffffffff1673ffffffffffffffffffffffffffffffffffffffff16636352211e836040518263ffffffff1660e01b81526004016136059190614772565b602060405180830381865afa158015613620573d5f803e3d5ffd5b505050506040513d601f19601f820116820180604052508101906136449190615715565b73ffffffffffffffffffffffffffffffffffffffff1614613691576040517f0725a18700000000000000000000000000000000000000000000000000000000815260040160405180910390fd5b60028060038111156136a6576136a56149fe565b5b60065f3373ffffffffffffffffffffffffffffffffffffffff1673ffffffffffffffffffffffffffffffffffffffff1681526020019081526020015f206002015f9054906101000a900460ff166003811115613705576137046149fe565b5b141580613784575060026004811115613721576137206149fe565b5b60065f3373ffffffffffffffffffffffffffffffffffffffff1673ffffffffffffffffffffffffffffffffffffffff1681526020019081526020015f2060020160019054906101000a900460ff166004811115613781576137806149fe565b5b14155b15613814578060065f3373ffffffffffffffffffffffffffffffffffffffff1673ffffffffffffffffffffffffffffffffffffffff1681526020019081526020015f206002015f9054906101000a900460ff166040517f7851b25000000000000000000000000000000000000000000000000000000000815260040161380b9291906151c3565b60405180910390fd5b5f60045f9054906101000a900473ffffffffffffffffffffffffffffffffffffffff1673ffffffffffffffffffffffffffffffffffffffff16636112e8ac338960016040518463ffffffff1660e01b815260040161387493929190615786565b6020604051808303815f875af1158015613890573d5f803e3d5ffd5b505050506040513d601f19601f820116820180604052508101906138b49190615277565b90505f60045f9054906101000a900473ffffffffffffffffffffffffffffffffffffffff1673ffffffffffffffffffffffffffffffffffffffff16636112e8ac338a60026040518463ffffffff1660e01b815260040161391693929190615786565b6020604051808303815f875af1158015613932573d5f803e3d5ffd5b505050506040513d601f19601f820116820180604052508101906139569190615277565b90505f60045f9054906101000a900473ffffffffffffffffffffffffffffffffffffffff1673ffffffffffffffffffffffffffffffffffffffff16636112e8ac338b60036040518463ffffffff1660e01b81526004016139b893929190615786565b6020604051808303815f875af11580156139d4573d5f803e3d5ffd5b505050506040513d601f19601f820116820180604052508101906139f89190615277565b905060035f9054906101000a900473ffffffffffffffffffffffffffffffffffffffff1673ffffffffffffffffffffffffffffffffffffffff16634eb9eef18a8585856040518563ffffffff1660e01b8152600401613a5a94939291906157bb565b5f604051808303815f87803b158015613a71575f80fd5b505af1158015613a83573d5f803e3d5ffd5b5050505082828297509750975050505050509193909250565b5f7f01ffc9a7000000000000000000000000000000000000000000000000000000007bffffffffffffffffffffffffffffffffffffffffffffffffffffffff1916827bffffffffffffffffffffffffffffffffffffffffffffffffffffffff1916149050919050565b5f5b600a80549050811015613bc25781600a8281548110613b2957613b2861566a565b5b905f5260205f20015403613baf57600a6001600a80549050613b4b91906157fe565b81548110613b5c57613b5b61566a565b5b905f5260205f200154600a8281548110613b7957613b7861566a565b5b905f5260205f200181905550600a805480613b9757613b96615831565b5b600190038181905f5260205f20015f90559055613bc2565b8080613bba90615599565b915050613b07565b5050565b613bd781613bd2613cc4565b6145dd565b50565b5f613be583836120b0565b613cba57600160025f8581526020019081526020015f205f015f8473ffffffffffffffffffffffffffffffffffffffff1673ffffffffffffffffffffffffffffffffffffffff1681526020019081526020015f205f6101000a81548160ff021916908315150217905550613c57613cc4565b73ffffffffffffffffffffffffffffffffffffffff168273ffffffffffffffffffffffffffffffffffffffff16847f2f8788117e7eff1d82e926ec794901d17c78024a50270940304540a733656f0d60405160405180910390a460019050613cbe565b5f90505b92915050565b5f33905090565b5f613cd683836120b0565b15613dab575f60025f8581526020019081526020015f205f015f8473ffffffffffffffffffffffffffffffffffffffff1673ffffffffffffffffffffffffffffffffffffffff1681526020019081526020015f205f6101000a81548160ff021916908315150217905550613d48613cc4565b73ffffffffffffffffffffffffffffffffffffffff168273ffffffffffffffffffffffffffffffffffffffff16847ff6391f5c32d9c69d2a47ea670b442974b53935d1edc7fd64eb21e047a839171b60405160405180910390a460019050613daf565b5f90505b92915050565b82825f60015f8473ffffffffffffffffffffffffffffffffffffffff1673ffffffffffffffffffffffffffffffffffffffff1681526020019081526020015f205f8381526020019081526020015f206040518060400160405290815f8201548152602001600182015f9054906101000a900473ffffffffffffffffffffffffffffffffffffffff1673ffffffffffffffffffffffffffffffffffffffff1673ffffffffffffffffffffffffffffffffffffffff168152505090505f815f01511115613eb95782826040517f4a5568d5000000000000000000000000000000000000000000000000000000008152600401613eb0929190615643565b60405180910390fd5b5f8411613ef2576040517fe1abbfc500000000000000000000000000000000000000000000000000000000815260040160405180910390fd5b5f8690503073ffffffffffffffffffffffffffffffffffffffff168173ffffffffffffffffffffffffffffffffffffffff1663081812fc886040518263ffffffff1660e01b8152600401613f469190614772565b602060405180830381865afa158015613f61573d5f803e3d5ffd5b505050506040513d601f19601f82011682018060405250810190613f859190615715565b73ffffffffffffffffffffffffffffffffffffffff1614613fd2576040517f4be3a2c500000000000000000000000000000000000000000000000000000000815260040160405180910390fd5b60405180604001604052808681526020013373ffffffffffffffffffffffffffffffffffffffff1681525060015f8973ffffffffffffffffffffffffffffffffffffffff1673ffffffffffffffffffffffffffffffffffffffff1681526020019081526020015f205f8881526020019081526020015f205f820151815f01556020820151816001015f6101000a81548173ffffffffffffffffffffffffffffffffffffffff021916908373ffffffffffffffffffffffffffffffffffffffff1602179055509050508073ffffffffffffffffffffffffffffffffffffffff166323b872dd3330896040518463ffffffff1660e01b81526004016140d793929190615697565b5f604051808303815f87803b1580156140ee575f80fd5b505af1158015614100573d5f803e3d5ffd5b50505050858773ffffffffffffffffffffffffffffffffffffffff163373ffffffffffffffffffffffffffffffffffffffff167fd547e933094f12a9159076970143ebe73234e64480317844b0dcb36117116de4886040516141629190614772565b60405180910390a450505050505050565b81815f60015f8473ffffffffffffffffffffffffffffffffffffffff1673ffffffffffffffffffffffffffffffffffffffff1681526020019081526020015f205f8381526020019081526020015f206040518060400160405290815f8201548152602001600182015f9054906101000a900473ffffffffffffffffffffffffffffffffffffffff1673ffffffffffffffffffffffffffffffffffffffff1673ffffffffffffffffffffffffffffffffffffffff168152505090505f815f0151116142765782826040517f6831488c00000000000000000000000000000000000000000000000000000000815260040161426d929190615643565b60405180910390fd5b61427e614590565b5f60015f8773ffffffffffffffffffffffffffffffffffffffff1673ffffffffffffffffffffffffffffffffffffffff1681526020019081526020015f205f8681526020019081526020015f206040518060400160405290815f8201548152602001600182015f9054906101000a900473ffffffffffffffffffffffffffffffffffffffff1673ffffffffffffffffffffffffffffffffffffffff1673ffffffffffffffffffffffffffffffffffffffff16815250509050805f0151341015614385578585825f01516040517f7c93456500000000000000000000000000000000000000000000000000000000815260040161437c9392919061585e565b60405180910390fd5b5f816020015173ffffffffffffffffffffffffffffffffffffffff16346040516143ae906158c0565b5f6040518083038185875af1925050503d805f81146143e8576040519150601f19603f3d011682016040523d82523d5f602084013e6143ed565b606091505b5050905080614431576040517f08c379a00000000000000000000000000000000000000000000000000000000081526004016144289061591e565b60405180910390fd5b60015f8873ffffffffffffffffffffffffffffffffffffffff1673ffffffffffffffffffffffffffffffffffffffff1681526020019081526020015f205f8781526020019081526020015f205f8082015f9055600182015f6101000a81549073ffffffffffffffffffffffffffffffffffffffff021916905550508673ffffffffffffffffffffffffffffffffffffffff166342842e0e3033896040518463ffffffff1660e01b81526004016144e993929190615697565b5f604051808303815f87803b158015614500575f80fd5b505af1158015614512573d5f803e3d5ffd5b50505050858773ffffffffffffffffffffffffffffffffffffffff163373ffffffffffffffffffffffffffffffffffffffff167f263223b1dd81e51054a4e6f791d45a4a1ddb4aadcd93a2dfd892615c3fdac187855f01516040516145779190614772565b60405180910390a450506145896145d4565b5050505050565b60025f54036145cb576040517f3ee5aeb500000000000000000000000000000000000000000000000000000000815260040160405180910390fd5b60025f81905550565b60015f81905550565b6145e782826120b0565b61462a5780826040517fe2517d3f00000000000000000000000000000000000000000000000000000000815260040161462192919061593c565b60405180910390fd5b5050565b6040518061012001604052805f73ffffffffffffffffffffffffffffffffffffffff16815260200160608152602001606081526020015f6003811115614677576146766149fe565b5b81526020015f600481111561468f5761468e6149fe565b5b81526020015f81526020015f81526020015f73ffffffffffffffffffffffffffffffffffffffff168152602001606081525090565b5f604051905090565b5f80fd5b5f80fd5b5f73ffffffffffffffffffffffffffffffffffffffff82169050919050565b5f6146fe826146d5565b9050919050565b61470e816146f4565b8114614718575f80fd5b50565b5f8135905061472981614705565b92915050565b5f60208284031215614744576147436146cd565b5b5f6147518482850161471b565b91505092915050565b5f819050919050565b61476c8161475a565b82525050565b5f6020820190506147855f830184614763565b92915050565b5f7fffffffff0000000000000000000000000000000000000000000000000000000082169050919050565b6147bf8161478b565b81146147c9575f80fd5b50565b5f813590506147da816147b6565b92915050565b5f602082840312156147f5576147f46146cd565b5b5f614802848285016147cc565b91505092915050565b5f8115159050919050565b61481f8161480b565b82525050565b5f6020820190506148385f830184614816565b92915050565b6148478161475a565b8114614851575f80fd5b50565b5f813590506148628161483e565b92915050565b5f80fd5b5f80fd5b5f601f19601f8301169050919050565b7f4e487b71000000000000000000000000000000000000000000000000000000005f52604160045260245ffd5b6148b682614870565b810181811067ffffffffffffffff821117156148d5576148d4614880565b5b80604052505050565b5f6148e76146c4565b90506148f382826148ad565b919050565b5f67ffffffffffffffff82111561491257614911614880565b5b61491b82614870565b9050602081019050919050565b828183375f83830152505050565b5f614948614943846148f8565b6148de565b9050828152602081018484840111156149645761496361486c565b5b61496f848285614928565b509392505050565b5f82601f83011261498b5761498a614868565b5b813561499b848260208601614936565b91505092915050565b5f80604083850312156149ba576149b96146cd565b5b5f6149c785828601614854565b925050602083013567ffffffffffffffff8111156149e8576149e76146d1565b5b6149f485828601614977565b9150509250929050565b7f4e487b71000000000000000000000000000000000000000000000000000000005f52602160045260245ffd5b60058110614a3c57614a3b6149fe565b5b50565b5f819050614a4c82614a2b565b919050565b5f614a5b82614a3f565b9050919050565b614a6b81614a51565b82525050565b5f602082019050614a845f830184614a62565b92915050565b5f819050919050565b614a9c81614a8a565b8114614aa6575f80fd5b50565b5f81359050614ab781614a93565b92915050565b5f60208284031215614ad257614ad16146cd565b5b5f614adf84828501614aa9565b91505092915050565b614af181614a8a565b82525050565b5f602082019050614b0a5f830184614ae8565b92915050565b5f8060408385031215614b2657614b256146cd565b5b5f614b3385828601614aa9565b9250506020614b448582860161471b565b9150509250929050565b5f81519050919050565b5f82825260208201905092915050565b5f5b83811015614b85578082015181840152602081019050614b6a565b5f8484015250505050565b5f614b9a82614b4e565b614ba48185614b58565b9350614bb4818560208601614b68565b614bbd81614870565b840191505092915050565b60048110614bd957614bd86149fe565b5b50565b5f819050614be982614bc8565b919050565b5f614bf882614bdc565b9050919050565b614c0881614bee565b82525050565b5f60a0820190508181035f830152614c268188614b90565b90508181036020830152614c3a8187614b90565b9050614c496040830186614bff565b614c566060830185614a62565b614c636080830184614763565b9695505050505050565b60048110614c79575f80fd5b50565b5f81359050614c8a81614c6d565b92915050565b5f805f60608486031215614ca757614ca66146cd565b5b5f84013567ffffffffffffffff811115614cc457614cc36146d1565b5b614cd086828701614977565b935050602084013567ffffffffffffffff811115614cf157614cf06146d1565b5b614cfd86828701614977565b9250506040614d0e86828701614c7c565b9150509250925092565b5f81519050919050565b5f82825260208201905092915050565b5f819050602082019050919050565b614d4a8161475a565b82525050565b5f614d5b8383614d41565b60208301905092915050565b5f602082019050919050565b5f614d7d82614d18565b614d878185614d22565b9350614d9283614d32565b805f5b83811015614dc2578151614da98882614d50565b9750614db483614d67565b925050600181019050614d95565b5085935050505092915050565b5f6020820190508181035f830152614de78184614d73565b905092915050565b5f60208284031215614e0457614e036146cd565b5b5f614e1184828501614854565b91505092915050565b614e23816146f4565b82525050565b5f61012082019050614e3d5f83018c614e1a565b8181036020830152614e4f818b614b90565b90508181036040830152614e63818a614b90565b9050614e726060830189614bff565b614e7f6080830188614a62565b614e8c60a0830187614763565b614e9960c0830186614763565b614ea660e0830185614e1a565b818103610100830152614eb98184614b90565b90509a9950505050505050505050565b5f8060408385031215614edf57614ede6146cd565b5b5f614eec8582860161471b565b9250506020614efd85828601614854565b9150509250929050565b5f604082019050614f1a5f830185614763565b614f276020830184614e1a565b9392505050565b5f805f60608486031215614f4557614f446146cd565b5b5f614f528682870161471b565b9350506020614f6386828701614854565b9250506040614f7486828701614854565b9150509250925092565b60098110614f8f57614f8e6149fe565b5b50565b5f819050614f9f82614f7e565b919050565b5f614fae82614f92565b9050919050565b614fbe81614fa4565b82525050565b5f604082019050614fd75f830185614fb5565b614fe46020830184614763565b9392505050565b5f8060408385031215615001576150006146cd565b5b5f61500e8582860161471b565b925050602061501f85828601614c7c565b9150509250929050565b615032816146f4565b82525050565b5f82825260208201905092915050565b5f61505282614b4e565b61505c8185615038565b935061506c818560208601614b68565b61507581614870565b840191505092915050565b61508981614bee565b82525050565b61509881614a51565b82525050565b5f61012083015f8301516150b45f860182615029565b50602083015184820360208601526150cc8282615048565b915050604083015184820360408601526150e68282615048565b91505060608301516150fb6060860182615080565b50608083015161510e608086018261508f565b5060a083015161512160a0860182614d41565b5060c083015161513460c0860182614d41565b5060e083015161514760e0860182615029565b506101008301518482036101008601526151618282615048565b9150508091505092915050565b5f6020820190508181035f830152615186818461509e565b905092915050565b5f6060820190506151a15f830186614763565b6151ae6020830185614763565b6151bb6040830184614763565b949350505050565b5f6040820190506151d65f830185614bff565b6151e36020830184614bff565b9392505050565b7f4e487b71000000000000000000000000000000000000000000000000000000005f52601160045260245ffd5b5f6152218261475a565b915061522c8361475a565b9250828201905080821115615244576152436151ea565b5b92915050565b5f60208201905061525d5f830184614e1a565b92915050565b5f815190506152718161483e565b92915050565b5f6020828403121561528c5761528b6146cd565b5b5f61529984828501615263565b91505092915050565b7f4e487b71000000000000000000000000000000000000000000000000000000005f52602260045260245ffd5b5f60028204905060018216806152e657607f821691505b6020821081036152f9576152f86152a2565b5b50919050565b5f819050815f5260205f209050919050565b5f6020601f8301049050919050565b5f82821b905092915050565b5f6008830261535b7fffffffffffffffffffffffffffffffffffffffffffffffffffffffffffffffff82615320565b6153658683615320565b95508019841693508086168417925050509392505050565b5f819050919050565b5f6153a061539b6153968461475a565b61537d565b61475a565b9050919050565b5f819050919050565b6153b983615386565b6153cd6153c5826153a7565b84845461532c565b825550505050565b5f90565b6153e16153d5565b6153ec8184846153b0565b505050565b5b8181101561540f576154045f826153d9565b6001810190506153f2565b5050565b601f82111561545457615425816152ff565b61542e84615311565b8101602085101561543d578190505b61545161544985615311565b8301826153f1565b50505b505050565b5f82821c905092915050565b5f6154745f1984600802615459565b1980831691505092915050565b5f61548c8383615465565b9150826002028217905092915050565b6154a582614b4e565b67ffffffffffffffff8111156154be576154bd614880565b5b6154c882546152cf565b6154d3828285615413565b5f60209050601f831160018114615504575f84156154f2578287015190505b6154fc8582615481565b865550615563565b601f198416615512866152ff565b5f5b8281101561553957848901518255600182019150602085019450602081019050615514565b868310156155565784890151615552601f891682615465565b8355505b6001600288020188555050505b505050505050565b5f6040820190508181035f8301526155838185614b90565b90506155926020830184614763565b9392505050565b5f6155a38261475a565b91507fffffffffffffffffffffffffffffffffffffffffffffffffffffffffffffffff82036155d5576155d46151ea565b5b600182019050919050565b5f6060820190506155f35f830186614bff565b81810360208301526156058185614b90565b90506156146040830184614763565b949350505050565b5f60408201905061562f5f830185614bff565b61563c6020830184614763565b9392505050565b5f6040820190506156565f830185614e1a565b6156636020830184614763565b9392505050565b7f4e487b71000000000000000000000000000000000000000000000000000000005f52603260045260245ffd5b5f6060820190506156aa5f830186614e1a565b6156b76020830185614e1a565b6156c46040830184614763565b949350505050565b5f6060820190506156df5f830186614bff565b6156ec6020830185614bff565b6156f96040830184614763565b949350505050565b5f8151905061570f81614705565b92915050565b5f6020828403121561572a576157296146cd565b5b5f61573784828501615701565b91505092915050565b60048110615751576157506149fe565b5b50565b5f81905061576182615740565b919050565b5f61577082615754565b9050919050565b61578081615766565b82525050565b5f6060820190506157995f830186614e1a565b6157a66020830185614763565b6157b36040830184615777565b949350505050565b5f6080820190506157ce5f830187614763565b6157db6020830186614763565b6157e86040830185614763565b6157f56060830184614763565b95945050505050565b5f6158088261475a565b91506158138361475a565b925082820390508181111561582b5761582a6151ea565b5b92915050565b7f4e487b71000000000000000000000000000000000000000000000000000000005f52603160045260245ffd5b5f6060820190506158715f830186614e1a565b61587e6020830185614763565b61588b6040830184614763565b949350505050565b5f81905092915050565b50565b5f6158ab5f83615893565b91506158b68261589d565b5f82019050919050565b5f6158ca826158a0565b9150819050919050565b7f5472616e73666572206661696c65642e000000000000000000000000000000005f82015250565b5f615908601083614b58565b9150615913826158d4565b602082019050919050565b5f6020820190508181035f830152615935816158fc565b9050919050565b5f60408201905061594f5f830185614e1a565b61595c6020830184614ae8565b939250505056fea26469706673582212202fad693e433791ea03b3b2bffc4333bbdd3201f76bb313a12705da850ebd26c864736f6c63430008140033","linkReferences":{}},"methodIdentifiers":{"ADMIN_ROLE()":"75b238fc","DEFAULT_ADMIN_ROLE()":"a217fddf","SUPER_ADMIN_ROLE()":"4460bdd6","activeRequestId(address)":"5a4cbcec","addAdmin(address)":"70480275","approveRequest(uint256)":"d7d1bbdb","buyItem(address,uint256)":"9f37092a","cancelListing(address,uint256)":"b2ddee06","companies(address)":"355e6ce8","donate(address)":"00362a95","donors(address)":"ca0cdea8","getActiveRequestId(address)":"868daea9","getCompanyStatus(address)":"2296f80e","getListing(address,uint256)":"88700d1c","getMinimumDonationFee()":"921f401a","getPendingRequests()":"80a1f712","getRequestDetails(uint256)":"f34d4c63","getRoleAdmin(bytes32)":"248a9ca3","getTokensOnSale(address)":"9bbba3a8","getTotalRequests()":"f0e22d52","grantRole(bytes32,address)":"2f2ff15d","hasRole(bytes32,address)":"91d14854","isAdmin(address)":"24d7806c","listItem(address,uint256,uint256)":"89bfd38f","modifyRole(address,uint8)":"e9c1847e","process(uint256)":"ffb2c479","rejectRequest(uint256,string)":"0a5505dd","removeAdmin(address)":"1785f53c","renounceRole(bytes32,address)":"36568abe","requestCounter()":"973a814e","requestSignUp(string,string,uint8)":"6e715915","requests(uint256)":"81d12c58","revokeCompany(address)":"7e3b89da","revokeRole(bytes32,address)":"d547741f","supportsInterface(bytes4)":"01ffc9a7","updateListing(address,uint256,uint256)":"f772adf1"},"id":53}